:100000000C9463000C948B000C948B000C9468048B
:100010000C9468040C9468040C948B000C948B0072
:100020000C948B000C948B000C948B000C948B0024
:100030000C948B000C948B000C948B000C948B0014
:100040000C941E040C948B000C94B1010C948B0145
:100050000C948B000C948B000C948B000C948B00F4
:100060000C948B000C948B000000000024002700EF
:100070002A0000000008000201000003040700003D
:1000800000000000000000000000250028002B00F8
:1000900000000000230026002900040404040404D6
:1000A0000404020202020202030303030303010227
:1000B00004081020408001020408102001020408F6
:1000C0001020480F240F11241FBECFEFD8E0DEBF51
:1000D000CDBF23E0A6E3B2E001C01D92AC37B2076A
:1000E000E1F712E0A0E0B1E0E0E3F9E202C0059040
:1000F0000D92A633B107D9F710E0C2E6D0E004C0F4
:100100002197FE010E945612C136D107C9F70E94FD
:10011000F3090C948B140C940000CF92DF92EF92B1
:10012000FF920F931F93CF93DF936C017A018B01A2
:10013000C0E0D0E0CE15DF0589F0D8016D918D01CA
:10014000D601ED91FC910190F081E02DC601099559
:10015000892B11F47E0102C02196ECCFC701DF91FB
:10016000CF911F910F91FF90EF90DF90CF90089566
:10017000FC01538D448D252F30E0842F90E0821BAD
:10018000930B541710F0CF96089501970895FC0132
:10019000918D828D981761F0828DDF01A80FB11DBE
:1001A0005D968C91928D9F5F9F73928F90E00895E2
:1001B0008FEF9FEF0895FC01918D828D981731F09C
:1001C000828DE80FF11D858D90E008958FEF9FEFF0
:1001D0000895FB01DC0111961C921E9213961C924D
:1001E0001E92129715961C921E92149786179707C7
:1001F00049F0608171816115710521F0448155815B
:100200000C94950908958EE992E00E94E30121E0A3
:10021000892B09F420E0822F0895EF92FF920F932B
:100220001F93CF93DF93EC0181E0888F9B8D8C8DA2
:10023000981305C0E889F989808185FD24C0F62ED0
:100240000B8D10E00F5F1F4F0F731127E02E8C8D69
:10025000E8120CC00FB607FCFACFE889F989808153
:1002600085FFF5CFCE010E94FD02F1CF8B8DFE01FF
:10027000E80FF11DE35AFF4FF0820B8FEA89FB89EB
:100280008081806207C0EE89FF896083E889F989EF
:1002900080818064808381E090E0DF91CF911F9125
:1002A0000F91FF90EF900895CF93DF93EC01888D2D
:1002B0008823C9F0EA89FB89808185FD05C0A8896A
:1002C000B9898C9186FD0FC00FB607FCF5CF8081F0
:1002D00085FFF2CFA889B9898C9185FFEDCFCE013A
:1002E0000E94FD02E7CFDF91CF910895FC011182BA
:1002F000108213821282158214826115710551F0E9
:10030000FB0101900020E9F73197AF01461B570B25
:100310000C94950908951F920F920FB60F92112415
:100320002F933F934F935F936F937F938F939F93FD
:10033000AF93BF93EF93FF938EE992E00E94FD028B
:10034000FF91EF91BF91AF919F918F917F916F91AD
:100350005F914F913F912F910F900FBE0F901F9083
:1003600018951F920F920FB60F9211242F938F930F
:100370009F93EF93FF93E091AE02F091AF028081E3
:10038000E091B402F091B50282FD12C0908180919B
:10039000B7028F5F8F732091B802821751F0E091FE
:1003A000B702F0E0E256FD4F958F8093B70201C08F
:1003B0008081FF91EF919F918F912F910F900FBEB0
:1003C0000F901F901895FC01918D228D892F90E040
:1003D000805C9F4F821B91098F739927089580E05D
:1003E00090E0892B29F00E94030181110C940000F8
:1003F0000895833081F028F4813099F08230A1F0A3
:1004000008958730A9F08830B9F08430D1F4809114
:1004100080008F7D03C0809180008F778093800063
:10042000089584B58F7702C084B58F7D84BD08950B
:100430008091B0008F7703C08091B0008F7D809352
:10044000B0000895209138023091390228173907F9
:1004500071F49091360280913702981741F0E09143
:100460003602F0E0EB5AFD4F808190E008958FEF67
:100470009FEF089508951F93CF93DF93DC015C965F
:100480002D913C915D972115310539F481E090E083
:1004900013969C938E9312973DC05196ED91FC91CB
:1004A000529750969C915097892F80951FB75E96D2
:1004B0004C915E9741FB772770F941FD6095F89468
:1004C0004081772311F0492B01C048234083E90183
:1004D0002197F1F748E0508160FF02C0592B01C01D
:1004E00058235083E9012197F1F76695415099F718
:1004F000772321F090818923808303C08081982B0A
:1005000090831FBF5C968D919C915D970197F1F749
:1005100021E030E0C901DF91CF911F910895209132
:100520003802309139022817390771F48091370267
:100530002091360290E0805C9F4F821B910960E41D
:1005400070E00E942E12089580E090E008952091BE
:1005500038023091390228173907B9F490913602E0
:1005600080913702981789F0E0913602F0E0EB5A5B
:10057000FD4F80812091360230E02F5F3F4F2F7377
:1005800033272093360290E008958FEF9FEF089570
:10059000089580E090E00895FC0126813781620F84
:1005A000731F848195818617970738F08281938124
:1005B00077836683820F931F089580E090E008950B
:1005C0000E9453140F931F93CF93DF938B01FC0171
:1005D000C281D381209759F06A817B81C8010E9432
:1005E0006114892B21F00990D881C02DF3CFCE0161
:1005F000DF91CF911F910F910895FC01848DDF0150
:10060000A80FB11DA35ABF4F2C91848D90E0019685
:100610008F739927848FA689B7892C93A089B18974
:100620008C9180648C93938D848D981306C002887E
:10063000F389E02D80818F7D80830895CF93DF93B0
:10064000282F30E0F901EE58FF4F8491F901E2556F
:10065000FF4FD491F901E656FF4FC491CC2391F09E
:1006600081110E94F901EC2FF0E0EE0FFF1FE0571F
:10067000FF4FA591B491EC91ED2381E090E021F43E
:1006800080E002C080E090E0DF91CF9108951F9359
:10069000CF93DF93282F30E0F901EE58FF4F84917C
:1006A000F901E255FF4FD491F901E656FF4FC4918D
:1006B000CC23C9F0162F81110E94F901EC2FF0E034
:1006C000EE0FFF1FEA57FF4FA591B4918FB7F89433
:1006D000111105C09C91ED2FE095E92302C0EC912A
:1006E000ED2BEC938FBFDF91CF911F910895CF93A6
:1006F000DF9390E0FC01E255FF4F2491FC01E656A8
:10070000FF4F8491882361F190E0880F991FFC01CD
:10071000E859FF4FC591D491FC01EA57FF4FA591CD
:10072000B491611109C09FB7F89488812095822304
:100730008883EC912E230BC0623061F49FB7F8944C
:100740003881822F809583238883EC912E2B2C93E4
:100750009FBF06C08FB7F894E8812E2B28838FBFE8
:10076000DF91CF9108953FB7F89480919A029091CC
:100770009B02A0919C02B0919D0226B5A89B05C04A
:100780002F3F19F00196A11DB11D3FBFBA2FA92F10
:10079000982F8827820F911DA11DB11DBC01CD018D
:1007A00042E0660F771F881F991F4A95D1F7089579
:1007B0008F929F92AF92BF92CF92DF92EF92FF9271
:1007C0006B017C010E94B3034B015C01C114D10495
:1007D000E104F104F1F00E94B303DC01CB018819BC
:1007E0009909AA09BB09883E9340A105B10570F398
:1007F00021E0C21AD108E108F10888EE880E83E0F2
:10080000981EA11CB11CC114D104E104F10419F714
:10081000DDCFFF90EF90DF90CF90BF90AF909F9093
:100820008F9008952FB7F894609196027091970277
:1008300080919802909199022FBF08951F920F9274
:100840000FB60F9211242F933F938F939F93AF93E3
:10085000BF938091960290919702A0919802B091D7
:1008600099023091950223E0230F2D3720F4019651
:10087000A11DB11D05C026E8230F0296A11DB11DC3
:10088000209395028093960290939702A0939802EA
:10089000B093990280919A0290919B02A0919C0240
:1008A000B0919D020196A11DB11D80939A02909373
:1008B0009B02A0939C02B0939D02BF91AF919F9128
:1008C0008F913F912F910F900FBE0F901F90189511
:1008D0001F920F920FB60F9211242F933F934F93B5
:1008E0005F936F937F938F939F93AF93BF93EF9398
:1008F000FF93E0913802F0913902309709F451C02A
:10090000968DA685B785858591FF04C09C91892326
:1009100029F447C09C91892309F043C0A389B48975
:100920009C918589809589238C93868997890197E5
:10093000F1F7608D718DA685B785558538E020E08B
:10094000CB010197F1F7822F90E095958795282F9D
:100950004C91452309F02068315091F7868D81FD37
:1009600020958091370290E001968F7399273091FE
:100970003602381749F0A0913702B0E0AB5ABD4FAC
:100980002C938093370203C0868D8160868F828D81
:10099000938D0197F1F7A389B4899C918589892B5F
:1009A0008C93FF91EF91BF91AF919F918F917F9128
:1009B0006F915F914F913F912F910F900FBE0F90CC
:1009C0001F9018950F931F93CF93DF930E94E2021D
:1009D000EC01892BC1F00C811D810130110559F406
:1009E0006E817F816115710531F08EEF91E00E947B
:1009F0006114892B41F0015011090230110518F4DE
:100A00008E819F8102C080E090E0DF91CF911F91A5
:100A10000F910895FC01A081B1818C918D3051F02E
:100A200024F489508230B8F505C0803219F08F3235
:100A300019F0089511962CC011968C9111978A3255
:100A400019F08F32D1F008951196B183A083A0815F
:100A5000B181CD0101969183808311968C9111977C
:100A60008823C9F08A3299F712968C9112978F32A7
:100A700071F713960DC08A3071F2A081B181CD015A
:100A800001969183808311968C918111F4CF03C0DC
:100A9000B183A083C0CF08950F931F93CF93DF93AB
:100AA0001F92CDB7DEB78C0169830E940A05D80179
:100AB000ED91FC91119780816981861305C0319673
:100AC000ED93FC9381E001C080E00F90DF91CF9126
:100AD0001F910F910895EF92FF920F931F93CF9361
:100AE000DF938C01DC011496CD91DC911597EA809F
:100AF000FB808E819F81E80EF91EC80102960E943C
:100B00000A05D8011296ED91FC91139790819732C6
:100B100091F1923281F180ED890F8A3060F0892F56
:100B20008F7D81548A3138F09B3229F083ED890F13
:100B3000823008F060C0F801228133812F5F3F4F7F
:100B4000338322832E813F81A9014F5F5F4F6C81E8
:100B50007D816417750740F06A817B81FB01E20F9C
:100B6000F31F5F834E839083D8011296ED91FC9121
:100B700013979081D0CF3196D8011396FC93EE93C2
:100B80001297D8011296ED91FC91139720812223A0
:100B900091F1AF014F5F5F4F13965C934E931297A5
:100BA000291749F12C35A9F42181A7E0B2E08C91F5
:100BB000882339F0821303C011962C9102C012963B
:100BC000F6CF2223C1F03296D8011396FC93EE9310
:100BD00012974E815F81BA016F5F7F4FEC81FD817B
:100BE000E617F70770F2EA81FB81E40FF51F7F83B8
:100BF0006E832083C6CF8E819F819C012F5F3F4FE4
:100C00004C815D814217530748F04A815B81FA01AC
:100C1000E80FF91F3F832E83108202C0E12CF12CD4
:100C2000C701DF91CF911F910F91FF90EF90089531
:100C3000DB01109749F0ED91FC9111970190F08143
:100C4000E02DBC01CD01099480E090E008959F92D1
:100C5000AF92BF92CF92DF92EF92FF920F931F93CA
:100C6000CF93DF9300D000D000D0CDB7DEB76C01BA
:100C7000FC0100811181B80184E090E00E94180617
:100C8000009739F0FC0111830083138212828C01DA
:100C900011C080914D0281110BC010924A02109236
:100CA000490210924C0210924B0281E080934D0257
:100CB00009E412E07601F2E0EF0EF11C6BE7C701E8
:100CC0000E944C05882309F466C06DE7C7010E94A5
:100CD0004C05811171C086E0982EC6010E946B05FB
:100CE0005C01892B09F457C06AE3C7010E944C05D7
:100CF000882309F450C01A821982BE016F5F7F4FAA
:100D0000C6010E942807882309F445C0B501C8011F
:100D10000E94E202DC01892B51F5F80160817181AA
:100D20008AE090E00E941806DC01892B39F01196C8
:100D30001C921E9215961C921E921497F801228105
:100D400033812115310551F0F9018081918100979E
:100D500011F09C01F9CFB183A08303C0F801B383E4
:100D6000A2831097C1F01396BC92AE921297FE0127
:100D700031961496892D01900D928A95E1F76DE7D1
:100D8000C7010E944C05811117C06CE2C7010E9487
:100D90004C058111A2CF80914D0281110BC01092A0
:100DA0004A021092490210924C0210924B0281E0CA
:100DB00080934D0209E412E0C80126960FB6F8941C
:100DC000DEBF0FBECDBFDF91CF911F910F91FF907E
:100DD000EF90DF90CF90BF90AF909F9008950F93CA
:100DE0001F93CF93DF93EC0188819981009729F0BD
:100DF0002A813B812617370788F48B016F5F7F4F6D
:100E00000E948913009761F0998388831B830A836A
:100E10002C813D81232B11F4FC01108281E001C063
:100E200080E0DF91CF911F910F910895CF93DF93D1
:100E3000EC0188819981009711F00E94F1121982CA
:100E400018821D821C821B821A82DF91CF91089525
:100E50009F92AF92BF92CF92DF92EF92FF920F9349
:100E60001F93CF93DF9300D000D000D0CDB7DEB773
:100E7000FC019681992309F4E2C06B017F01915036
:100E800096835F0182E0A80EB11CC5010E940A058D
:100E9000D7011296ED91FC91139780818B3521F04B
:100EA0008B3709F499C0A3C0F70100811181B80103
:100EB00084E090E00E941806009751F0DC01119642
:100EC0001C930E9313961C921E9212978C0111C0C4
:100ED0008091700381110BC010926D0310926C030E
:100EE00010926F0310926E0381E0809370030CE602
:100EF00013E06BE5C5010E944C05882309F44CC042
:100F00006DE5C5010E944C05811157C086E0982E01
:100F10001A821982BE016F5F7F4FC7010E942807A6
:100F20008823D1F1F8016081718188E090E00E940E
:100F30001806DC01892B39F011961C921E9213962B
:100F40001C921E921297F8012281338121153105DE
:100F500051F0F90180819181009711F09C01F9CF46
:100F6000B183A08303C0F801B383A2831097A1F0DB
:100F7000FE0131961296892D01900D928A95E1F726
:100F80006DE5C5010E944C05811117C06CE2C501D9
:100F90000E944C058111BCCF8091700381110BC060
:100FA00010926D0310926C0310926F0310926E03F7
:100FB00081E0809370030CE613E0D8018D919C9141
:100FC000892B11F410E033C086E090E0F6019183A4
:100FD0008083138302832AC0C7010E942706DC0195
:100FE0002D913C91232B71F327E030E01AC011E0E2
:100FF000873219F0823209F010E0C7010E946B05B8
:10100000009701F3112359F022E030E0D601119648
:101010003C932E9313969C938E93129708C021E0D5
:1010200030E0F601318320839383828311E0D7017E
:1010300016968C9116978F5F16968C9301C010E0D0
:10104000812F26960FB6F894DEBF0FBECDBFDF917D
:10105000CF911F910F91FF90EF90DF90CF90BF90B5
:10106000AF909F900895EF92FF921F93CF93DF93DD
:10107000C7E0D0E010E083E7E82EF12C80913B033D
:101080000E941E030197D1F7C7010197F1F78091E4
:101090003B030E941E038130910569F49C010C2ED4
:1010A00001C0220F0A94EAF7122B80913B030E94A1
:1010B0001E03892BD1F7219708F7812FDF91CF915C
:1010C0001F91FF90EF9008958F929F92AF92BF92E1
:1010D000CF92DF92EF92FF92CF93DF93C82F6A01F6
:1010E0007B010E94B3034B015C01C60ED71EE81EB4
:1010F000F91ED0E080913B030E941E038C179D07D0
:1011000059F00E94B303C616D706E806F90690F711
:101110006FEF7FEFCB0106C00E94B3036819790916
:101120008A099B09DF91CF91FF90EF90DF90CF90DC
:10113000BF90AF909F908F900895CF93DF93FC0165
:1011400024813581232B71F0FB01DC01CD91DC91F1
:1011500060817181CE010E947114009719F08C1B7F
:101160009D0B02C08FEF9FEFDF91CF910895EF921B
:10117000FF920F931F93CF93DF93FC01248135815E
:101180006115710511F480E019C041155105A9F0F0
:101190007B01EC018A01020F131FB8010E94EF06C8
:1011A000882389F3288139818C819D81B701820F41
:1011B000931F0E946A141D830C8381E0DF91CF91FD
:1011C0001F910F91FF90EF900895AF92BF92CF9231
:1011D000DF92EF92FF920F931F93CF93DF9300D094
:1011E000CDB7DEB78C015B0169017A0161E172E084
:1011F0000E947601F50144815581608171818DE401
:1012000093E00E948D000E941204C60ED71EE81EB5
:10121000F91E0E9412046C157D058E059F05A8F429
:101220008DE493E00E948F02892B99F38DE493E083
:101230000E94A70289831A8241E050E0BE016F5FDD
:101240007F4FC8010E94B708EBCFC8010F900F90E5
:10125000DF91CF911F910F91FF90EF90DF90CF9092
:10126000BF90AF900895EF92FF920F931F93CF938B
:10127000DF93CDB7DEB727970FB6F894DEBF0FBE6A
:10128000CDBF7C01CB014AE08E010F5F1F4FB8013B
:101290000E942A10F80101900020E9F73197AF0170
:1012A000401B510BB801C7010E94B708811103C050
:1012B000C7010E941607C70127960FB6F894DEBF34
:1012C0000FBECDBFDF91CF911F910F91FF90EF9097
:1012D0000895CF93DF93EC016115710561F0FB0177
:1012E00001900020E9F73197AF01461B570B0E9490
:1012F000B708811103C0CE010E941607CE01DF910D
:10130000CF910895CF93DF93EC01FB014481558188
:10131000608171810E94B708811103C0CE010E94D3
:101320001607CE01DF91CF910895EF92FF920F93B0
:101330001F93CF93DF93EC017B018A01BA010E94D6
:10134000EF06811104C0CE010E94160707C01D835D
:101350000C83B701888199810E946A14CE01DF91C4
:10136000CF911F910F91FF90EF900895FC01808124
:1013700091810C94F112EF92FF920F931F93CF93F0
:10138000DF93CDB7DEB762970FB6F894DEBF0FBE1E
:10139000CDBF8C01CB01F801118210821382128221
:1013A0001582148250E09E012F5F3F4F7901B901F1
:1013B0000E941410F70101900020E9F73197AF0166
:1013C0004E195F09B701C8010E94950962960FB6D0
:1013D000F894DEBF0FBECDBFDF91CF911F910F916B
:1013E000FF90EF900895CF93DF93CDB7DEB7C15A4A
:1013F000D1090FB6F894DEBF0FBECDBF789484B587
:10140000826084BD84B5816084BD85B5826085BD00
:1014100085B5816085BD80916E00816080936E008E
:101420001092810080918100826080938100809180
:101430008100816080938100809180008160809331
:1014400080008091B10084608093B1008091B000F1
:1014500081608093B00080917A00846080937A00EC
:1014600080917A00826080937A0080917A00816016
:1014700080937A0080917A00806880937A0010923D
:10148000C100E091AE02F091AF0282E08083E09172
:10149000AA02F091AB021082E091AC02F091AD0291
:1014A0008FEC80831092B602E091B202F091B30209
:1014B00086E08083E091B002F091B102808180618A
:1014C0008083E091B002F091B102808188608083D6
:1014D000E091B002F091B102808180688083E09158
:1014E000B002F091B10280818F7D808310926803F9
:1014F00010926703109266031092650310926403C2
:10150000109263038DE991E090936A0380936903DD
:1015100090915903963108F057C02DEB30E030938D
:101520006403209363032BE931E030936603209337
:1015300065032CE231E03093680320936703209128
:101540006800983050F031E09E3008F430E081E0DF
:1015500001C0880F3A95EAF701C084E0822B80939E
:101560006800983038F09E3040F0963148F020E026
:1015700030E008C02DE630E005C02BE630E002C0C8
:101580002CE630E03093610320936003983030F410
:1015900081E001C0880F9A95EAF70EC0292F30E04C
:1015A0009E3018F42850310902C02E50310981E0D4
:1015B00001C0880F2A95EAF780936203809169033E
:1015C00090916A030197F1F7809167039091680306
:1015D000892B49F1E0913802F091390223E0ED3492
:1015E000F20709F1309739F0A389B4899C91858974
:1015F000809589238C9380916B038E7F80936B03FE
:1016000010923702109236028DE493E090933902E3
:1016100080933802E0916003F091610390818091A2
:101620006203892B808368EE73E080E090E00E9483
:10163000D80366E371E0CE0183599F4F0E94760183
:1016400028EB3BE040E050E0BE0163597F4F8E0144
:101650000F5F1F4FC8010E94E508C8010E94B6092C
:10166000CE0183599F4F0E94B6096FE371E0CE010E
:1016700083599F4F0E94760120ED37E040E050E013
:10168000BE0163597F4FC8010E94E508C8010E944E
:10169000B609CE0183599F4F0E94B60964E471E0F8
:1016A000CE0183599F4F0E94760120ED37E040E044
:1016B00050E0BE0163597F4FC8010E94E508C80190
:1016C0000E94B609CE0183599F4F0E94B6090E941D
:1016D000120460933A0270933B0280933C02909311
:1016E0003D028EE992E00E94E301892BD1F360ED87
:1016F00077E080E090E00E94D8038EE992E00E94BB
:10170000E301892B71F08EE992E00E94C700898382
:101710001A8241E050E0B80181E493E00E94B708EA
:10172000ECCFCE0109969C838B8384E690E09E8368
:101730008D8318861F8280E191E09A83898380914E
:10174000410390914203009711F481E192E0AF963A
:101750001FAF0EAFAF97E1969FAF8EAFE197E396C5
:101760001FAF0EAFE3978AE0E4968FAFE497CE0108
:1017700083599F4F0E9427067C0162E571E00E9419
:10178000E20490930501809304016BE571E0C701C9
:101790000E94E204909301018093000160E671E0F1
:1017A000C7010E94E204909303018093020164E662
:1017B00071E0CE0183599F4F0E94760120ED37E002
:1017C00040E050E0BE0163597F4FC8010E94E50828
:1017D000C8010E94B609CE0183599F4F0E94B609E5
:1017E000E0900201F0900301A0900001B09001018F
:1017F0006FE671E0CE0183599F4F0E947601BE01D2
:1018000063597F4FC8010E94E900B501C8010E94D9
:1018100069096AE771E00E946909B7010E946909D4
:101820006EE771E00E946909BC01CE0186589F4FA6
:101830000E94E900C8010E94B609CE0183599F4F5A
:101840000E94B609BE0166587F4FCE0183599F4F53
:101850000E94E90028E833E140E050E0BE0163590E
:101860007F4FC8010E94E508C8010E94B609CE0159
:1018700083599F4F0E94B60962E871E0C8010E9437
:10188000760165E871E0CE018C589F4F0E94760189
:1018900028EB3BE040E050E0BE016C587F4FCE01AA
:1018A00083599F4F0E94E508B801CE0183599F4F8D
:1018B0000E949D087C01CE0183599F4F0E94B6096A
:1018C000CE018C589F4F0E94B609C8010E94B609EC
:1018D000E0919E02F0919F020190F081E02DEF20B7
:1018E000E09409F161E38EE992E0099561E971E024
:1018F000CE0183599F4F0E94760120ED37E040E0F2
:1019000050E0BE0163597F4FC8010E94E508C8013D
:101910000E94B609CE0183599F4F0E94B60981E00B
:101920008093480204C060E38EE992E00995CE01FD
:1019300086589F4F0E94B6090E9412046093440289
:10194000709345028093460290934702809148022B
:10195000882309F424C10E941204809044029090CC
:101960004502A0904602B0904702DC01CB018819E5
:101970009909AA09BB09813E9E42A105B1050CF453
:101980000EC10E94120480903D0390903E03A090EF
:101990003F03B0904003DC01CB0188199909AA09E3
:1019A000BB09883E9340A105B10528F489288A28FF
:1019B0008B2809F0EAC061E080913B030E94770325
:1019C00060E080913B030E94470362E170E080E0A9
:1019D00090E00E94D80361E080913B030E9447039E
:1019E00060E080913B030E94770348E250E060E0B2
:1019F00070E080E00E9464084AE550E060E070E03A
:101A000081E00E9464084AE550E060E070E080E018
:101A10000E9464080E943308C82E0E943308F82EE2
:101A20000E943308E82E0E943308D82E0E94330803
:101A30002F2D30E02C0D311D2E0D311D2D0D311DA2
:101A400090E02817390709F0A0C06C2D70E080E005
:101A500090E00E9454104B015C016F2D70E080E01B
:101A600090E00E94541020E030E048EC52E40E94E4
:101A700086119B01AC01C501B4010E941A114B01F2
:101A80005C016E2D70E080E090E00E9454102B010C
:101A90003C016D2D70E080E090E00E94541020E049
:101AA00030E048EC52E40E9486119B01AC01C30176
:101AB000B2010E941A119B01AC01C256DF4F68832C
:101AC000CE59D040C156DF4F3883CF59D040C05691
:101AD000DF4F4883C05AD040CF55DF4F5883C15A9B
:101AE000D0400E94120460933D0370933E038093A4
:101AF0003F0390934003E0904202F09043028FEF47
:101B0000E81AF80AF0924302E09242028091400201
:101B100090914102BC01990F880B990B0E945610BD
:101B2000C256DF4F2881CE59D040C156DF4F388191
:101B3000CF59D040C056DF4F4881C05AD040CF5512
:101B4000DF4F5881C15AD0400E941A110E94F811EB
:101B5000709341026093400280913E0290913F0257
:101B6000BC01990F880B990B0E945610A501940196
:101B70000E941A110E94F8119B0170933F0260931A
:101B80003E0285E0E816F10469F00E9412046093B9
:101B900044027093450280934602909347020E944C
:101BA000EF01D4CEC901B7010E942E124AE0CE0146
:101BB00088569F4F0E94BB0980914002909141023C
:101BC000B7010E942E124AE0CE018E569F4F0E940E
:101BD000BB096CE971E0CE0183599F4F0E947601E9
:101BE000BE0163597F4FC8010E94E9006BE771E0B5
:101BF000C8010E9469096EEA71E00E9469096CEBF4
:101C000071E00E94690969E273E20E9433096FEE94
:101C100071E00E946909BC01CE0184579F4F0E9468
:101C2000E900C8010E94B609CE0183599F4F0E9466
:101C3000B60962E871E0C8010E947601BE016457EE
:101C40007F4FCE018C589F4F0E94E90028EB3BE06C
:101C500040E050E0BE016C587F4FCE0183599F4F4A
:101C60000E94E508B801CE0183599F4F0E949D084C
:101C70007C01CE0183599F4F0E94B609CE018C583A
:101C80009F4F0E94B609C8010E94B609EF20E09458
:101C900009F4BEC06091040170910501C8010E9461
:101CA00076016FEB71E0CE0183599F4F0E94760160
:101CB000B801CE0183599F4F0E9482096AEC71E0FE
:101CC0000E946909BE016E567F4F0E94820961ED34
:101CD00071E00E946909BE0168567F4F0E94820927
:101CE000BC01CE018A579F4F0E94E900CE01835963
:101CF0009F4F0E94B609C8010E94B60968ED71E0C5
:101D0000C8010E94760167E473E0C8010E9482095D
:101D1000BE016A577F4F0E9482096FEE71E00E94F8
:101D20006909BC01CE0180589F4F0E94E900C8019B
:101D30000E94B60944E150E06DED71E0CE0180589B
:101D40009F4F0E94B708CC57DF4FE880F980C458F6
:101D5000D04062EF71E0CE0186589F4F0E9476011D
:101D6000BE0166587F4FCE018C589F4F0E94E900FC
:101D7000B701CE018C589F4F0E9433096FEE71E07E
:101D80000E946909BC01CE0183599F4F0E94E9005E
:101D900028EE33E040E050E0BE0163597F4FC801B8
:101DA0000E94E508C8010E94B609CE0183599F4FE1
:101DB0000E94B609CE018C589F4F0E94B609CE01F1
:101DC00086589F4F0E94B609BE0160587F4FCE01D2
:101DD00083599F4F0E94E90028EE33E040E050E035
:101DE000BE0163597F4FC8010E94E508C8010E94E7
:101DF000B609CE0183599F4F0E94B609CE01805883
:101E00009F4F0E94B609CE018A579F4F0E94B60984
:101E1000CE0184579F4F0E94B609CE018E569F4F28
:101E20000E94B609CE0188569F4F0E94B6091092B3
:101E3000430210924202109241021092400210920C
:101E40003F0210923E02A1CE81E493E00E94B609C7
:101E500087E493E00E94B60988E291E090934E03F4
:101E600080934D0380913802909139028D549340B4
:101E700071F4E0916003F0916103908180916203BD
:101E80008095892380831092390210923802089538
:101E90001092A1021092A00288EE93E0A0E0B0E0C0
:101EA0008093A2029093A302A093A402B093A502F0
:101EB00026E131E030939F0220939E0225EC30E032
:101EC0003093AB022093AA0224EC30E03093AD02B1
:101ED0002093AC0220EC30E03093AF022093AE02AE
:101EE00021EC30E03093B1022093B00222EC30E0DC
:101EF0003093B3022093B20226EC30E03093B50267
:101F00002093B4021092B7021092B8021092B90254
:101F10001092BA021092500310924F038093510313
:101F200090935203A0935303B093540388E291E03B
:101F300090934E0380934D031092640310926303B9
:101F40001092660310926503109268031092670363
:101F500010926A031092690360916B036E7F6D7F2C
:101F600060936B036695617081E068278BE00E9447
:101F7000470361E08BE00E947703E9EBF0E0E49136
:101F8000E0935D03E5EAF0E0E491F0E0EE0FFF1F7F
:101F9000EA57FF4F8591949190935F0380935E037E
:101FA00060E08AE00E94770380916B0381FD04C0AA
:101FB00061E08AE00E9447038AE080935903E8EBDE
:101FC000F0E0E491E0935A03E4EAF0E0E491F0E019
:101FD000EE0FFF1FE057FF4F8591949190935C03A4
:101FE00080935B0362E172E087E493E00E947601F4
:101FF00061E172E081E493E00E94760186E090E086
:1020000090933C0380933B0310923D0310923E0358
:1020100010923F031092400360E00E94770361E05A
:1020200080913B030C9447034532510520F4423024
:1020300010F00C941F10FB011082CB010895BB27F8
:102040004A3031F4992322F4BDE2909581959F4F57
:102050000C942B10BB27FB015527AA27880F991F2B
:10206000AA1FA41710F0A41B83955051B9F7A05DC7
:10207000AA3308F0A95DA193009779F7B111B19344
:102080001192CB010C944410DC01FC01672F71917B
:102090007723E1F7329704C07C916D93708362914E
:1020A000AE17BF07C8F30895E89409C097FB3EF444
:1020B00090958095709561957F4F8F4F9F4F992395
:1020C000A9F0F92F96E9BB279395F6958795779513
:1020D0006795B795F111F8CFFAF4BB0F11F460FFD3
:1020E0001BC06F5F7F4F8F4F9F4F16C0882311F02B
:1020F00096E911C0772321F09EE8872F762F05C03F
:10210000662371F096E8862F70E060E02AF09A95D9
:10211000660F771F881FDAF7880F9695879597F9CE
:10212000089597F99F6780E870E060E008959FEF59
:1021300080EC089500240A9416161706180609065E
:10214000089500240A94121613061406050608952D
:10215000092E0394000C11F4882352F0BB0F40F4B5
:10216000BF2B11F460FF04C06F5F7F4F8F4F9F4FF5
:10217000089557FD9058440F551F59F05F3F71F077
:102180004795880F97FB991F61F09F3F79F08795DE
:102190000895121613061406551FF2CF4695F1DF67
:1021A00008C0161617061806991FF1CF86957105F7
:1021B000610508940895E894BB2766277727CB012B
:1021C00097F908952F923F924F925F926F927F926C
:1021D0008F929F92AF92BF92CF92DF92EF92FF9237
:1021E0000F931F93CF93DF93CDB7DEB7CA1BDB0BE3
:1021F0000FB6F894DEBF0FBECDBF09942A88398888
:1022000048885F846E847D848C849B84AA84B9848E
:10221000C884DF80EE80FD800C811B81AA81B9819A
:10222000CE0FD11D0FB6F894DEBF0FBECDBFED01AE
:1022300008955058BB27AA270E9431110C94A8106A
:102240000E949A1038F00E94A11020F039F49F3FAC
:1022500019F426F40C9497100EF4E095E7FB0C9417
:102260009110E92F0E94B91058F3BA17620773074B
:102270008407950720F079F4A6F50C94DB100EF492
:10228000E0950B2EBA2FA02D0B01B90190010C0186
:10229000CA01A0011124FF27591B99F0593F50F49E
:1022A000503E68F11A16F040A22F232F342F4427F6
:1022B000585FF3CF469537952795A795F0405395EE
:1022C000C9F77EF41F16BA0B620B730B840BBAF0BE
:1022D0009150A1F0FF0FBB1F661F771F881FC2F729
:1022E0000EC0BA0F621F731F841F48F4879577953D
:1022F0006795B795F7959E3F08F0B0CF9395880FF7
:1023000008F09927EE0F9795879508950E949A11E6
:102310000C94A8100E94A11058F00E949A1040F04E
:1023200029F45F3F29F00C94911051110C94DC10AA
:102330000C9497100E94B91068F39923B1F35523B8
:1023400091F3951B550BBB27AA27621773078407C8
:1023500038F09F5F5F4F220F331F441FAA1FA9F35E
:1023600035D00E2E3AF0E0E832D091505040E6954C
:10237000001CCAF72BD0FE2F29D0660F771F881FAD
:10238000BB1F261737074807AB07B0E809F0BB0BA0
:10239000802DBF01FF2793585F4F3AF09E3F5105B4
:1023A00078F00C9491100C94DC105F3FE4F3983EAD
:1023B000D4F3869577956795B795F7959F5FC9F79D
:1023C000880F911D9695879597F90895E1E0660F1E
:1023D000771F881FBB1F621773078407BA0720F097
:1023E000621B730B840BBA0BEE1F88F7E095089500
:1023F0000E94FF116894B1110C94DC1008950E94A2
:10240000C11088F09F5798F0B92F9927B751B0F0B5
:10241000E1F0660F771F881F991F1AF0BA95C9F768
:1024200014C0B13091F00E94DB10B1E008950C941B
:10243000DB10672F782F8827B85F39F0B93FCCF3CE
:10244000869577956795B395D9F73EF490958095E5
:10245000709561957F4F8F4F9F4F089597FB072E83
:1024600016F4009407D077FD09D00E94421207FCB1
:1024700005D03EF4909581959F4F08957095619594
:102480007F4F0895AA1BBB1B51E107C0AA1FBB1FAA
:10249000A617B70710F0A61BB70B881F991F5A95F0
:1024A000A9F780959095BC01CD010895EE0FFF1F0F
:1024B0000590F491E02D0994CF93DF93823091053C
:1024C00010F482E090E0E0917A03F0917B0320E049
:1024D00030E0C0E0D0E0309711F1408151814817E1
:1024E0005907C0F04817590761F4828193812097FA
:1024F00019F09B838A832BC090937B0380937A038C
:1025000026C02115310519F04217530718F49A0116
:10251000BE01DF01EF010280F381E02DDCCF211548
:10252000310509F1281B390B2430310590F412963E
:102530008D919C9113976115710521F0FB01938397
:10254000828304C090937B0380937A03FD013296CB
:1025500044C0FD01E20FF31F819391932250310992
:102560002D933C933AC02091780330917903232B2B
:1025700041F42091080130910901309379032093AF
:10258000780320910601309107012115310541F4AE
:102590002DB73EB740910A0150910B01241B350B1A
:1025A000E0917803F0917903E217F307A0F42E1B72
:1025B0003F0B2817390778F0AC014E5F5F4F2417A7
:1025C000350748F04E0F5F1F50937903409378030F
:1025D0008193919302C0E0E0F0E0CF01DF91CF91D1
:1025E00008950F931F93CF93DF93009709F48CC046
:1025F000FC0132971382128200917A0310917B03BF
:102600000115110581F420813181820F931F2091E2
:102610007803309179032817390779F5F093790316
:10262000E093780371C0D80140E050E0AE17BF07D7
:1026300050F412962D913C911397AD01211531055F
:1026400009F1D901F3CF9D01DA013383228360813F
:102650007181860F971F8217930769F4EC01288117
:102660003981260F371F2E5F3F4F318320838A81A8
:102670009B8193838283452B29F4F0937B03E09322
:102680007A0342C01396FC93EE931297ED014991A1
:1026900059919E01240F351FE217F30771F48081D1
:1026A0009181840F951F029611969C938E9382813F
:1026B000938113969C938E931297E0E0F0E0D801FB
:1026C00012968D919C911397009719F0F8018C0147
:1026D000F6CF8D919C9198012E5F3F4F820F931FF3
:1026E00020917803309179032817390769F43097DE
:1026F00029F410927B0310927A0302C01382128293
:102700001093790300937803DF91CF911F910F917C
:102710000895A0E0B0E0EFE8F3E10C94E610EC01DE
:10272000009721F4CB010E945C12B8C0FC01E60FB7
:10273000F71F9C0122503109E217F30708F4ACC0DF
:10274000D9010D911C91119706171707B0F00530AC
:10275000110508F49FC0C80104978617970708F46D
:1027600099C002501109061B170B019311936D9329
:102770007C93CF010E94F1128DC05B01A01AB10AB7
:102780004C01800E911EA0917A03B0917B0340E032
:1027900050E0E12CF12C109709F44AC0A815B905B6
:1027A000D1F56D907C901197630182E0C80ED11C29
:1027B000CA14DB0480F1A3014A195B096A0182E0B3
:1027C000C80ED11C1296BC9012971396AC91B5E02E
:1027D000CB16D10440F0B282A38351834083D90148
:1027E0006D937C930AC00E5F1F4FC301800F911F32
:1027F000F90191838083EB2DFA2FE114F10431F07C
:10280000D7011396FC93EE93129744C0F0937B0389
:10281000E0937A033FC08D919C9111974817590717
:1028200008F4AC017D0112960D90BC91A02DB3CFA0
:10283000809178039091790388159905E1F4461702
:102840005707C8F48091060190910701009741F461
:102850008DB79EB740910A0150910B01841B950BD7
:10286000E817F907C8F4F0937903E0937803F901C6
:10287000718360830FC0CB010E945C127C010097C2
:1028800059F0A801BE010E945814CE010E94F11215
:10289000C70104C0CE0102C080E090E0CDB7DEB732
:1028A000EEE00C94021181E090E0F8940C948B140B
:1028B000FB01DC0102C001900D9241505040D8F75D
:1028C0000895FB01DC018D91019080190110D9F36D
:1028D000990B0895FB01DC0101900D920020E1F7B6
:1028E0000895FB0151915523A9F0BF01DC014D91E1
:1028F00045174111E1F759F4CD010190002049F04D
:102900004D9140154111C9F3FB014111EFCF81E019
:1029100090E00197089510E0C2E6D0E004C0FE0107
:102920000E9456122196C336D107C9F7F894FFCFFB
:1029300011021102110200007C038000000000005F
:10294000CC02000000000D018D00B8005401E3012D
:10295000C700DB00000000003B028D00C9023A0204
:102960008F02A702220241542B5253540D0A0041F8
:10297000540D0A0041542B43574D4F44453D310DF2
:102980000A00757365724E616D650073736964004A
:102990007073770041542B43575141500D0A004149
:1029A000542B43574A41503D2200222C2200220D35
:1029B0000A004F4B0041542B43574A41503F0D0AE8
:1029C0000041542B43494653520D0A0041542B43B6
:1029D000495053544152543D225443502200323006
:1029E000332E3235302E33322E323700222C003F38
:1029F000757365724E616D653D002674656D703D41
:102A0000002668756D693D004745542000436F6E90
:102A10006E656374696F6E3A636C6F73650D0A0D52
:102A20000A0041542B43495053454E443D006E75B6
:102A30006C6C0022225C5C6208660C6E0A720D747B
:102A400009002F416972636F6E74726F6C6C2F7323
:102A5000657448756D69416E6454656D702E41638F
:062A600074696F6E0000B6
:00000001FF
