:100000000C9463000C948B000C948B000C949F0454
:100010000C949F040C949F040C948B000C94560336
:100020000C948B000C948B000C948B000C948B0024
:100030000C948B000C948B000C948B000C948B0014
:100040000C94D9020C948B000C94F3080C94CD08FA
:100050000C948B000C948B000C948B000C948B00F4
:100060000C948B000C948B000000000023002600F1
:10007000290000000000240027002A0000000000E2
:10008000250028002B0004040404040404040202D4
:100090000202020203030303030301020408102007
:1000A0004080010204081020010204081020000012
:1000B0000008000201000003040700000000000027
:1000C00000007A11C60C11241FBECFEFD8E0DEBFAE
:1000D000CDBF25E0A2EDB2E001C01D92A030B20775
:1000E000E1F712E0A0E0B1E0E6E6F9E202C0059037
:1000F0000D92A23DB107D9F710E0C2E6D0E004C0EE
:100100002197FE010E947112C136D107C9F70E94E2
:10011000DA0C0C94A6140C940000FC01918D828DD5
:10012000981761F0828DDF01A80FB11D5D968C914B
:10013000928D9F5F9F73928F90E008958FEF9FEF56
:100140000895FC01918D828D981731F0828DE80F12
:10015000F11D858D90E008958FEF9FEF0895FC01CC
:10016000918D228D892F90E0805C9F4F821B910999
:100170008F739927089580E090E0892B29F00E94E1
:100180005A0881110C9400000895833081F028F4FE
:10019000813099F08230A1F008958730A9F088303D
:1001A000B9F08430D1F4809180008F7D03C08091BC
:1001B00080008F7780938000089584B58F7702C088
:1001C00084B58F7D84BD08958091B0008F7703C082
:1001D0008091B0008F7D8093B00008953FB7F89470
:1001E0008091FA039091FB03A091FC03B091FD0371
:1001F00026B5A89B05C02F3F19F00196A11DB11D82
:100200003FBFBA2FA92F982F8827820F911DA11DBC
:10021000B11DBC01CD0142E0660F771F881F991FF9
:100220004A95D1F708952091210330912203281790
:10023000390771F49091200380911F03981741F0C2
:10024000E0912003F0E0E152FD4F808190E00895BD
:100250008FEF9FEF089508951F93CF93DF93DC01F5
:100260005C962D913C915D972115310539F481E023
:1002700090E013969C938E9312973DC05196ED910A
:10028000FC91529750969C915097892F80951FB75B
:100290005E964C915E9741FB772770F941FD609522
:1002A000F8944081772311F0492B01C04823408303
:1002B000E9012197F1F748E0508160FF02C0592B16
:1002C00001C058235083E9012197F1F76695415009
:1002D00099F7772321F090818923808303C080815F
:1002E000982B90831FBF5C968D919C915D97019791
:1002F000F1F721E030E0C901DF91CF911F9108951E
:1003000020912103309122032817390771F480913D
:100310001F032091200390E0805C9F4F821B910976
:1003200060E470E00E942712089580E090E0089554
:10033000209121033091220328173907B9F49091B5
:10034000200380911F03981789F0E0912003F0E0CB
:10035000E152FD4F80812091200330E02F5F3F4F1D
:100360002F7333272093200390E008958FEF9FEFA2
:10037000089520E131E0FC0131832083E0912103E5
:10038000F0912203E817F90759F4A389B4899C91E5
:100390008589809589238C931092220310922103E2
:1003A0000895089580E090E00895FC01268137814A
:1003B000620F731F848195818617970738F08281B9
:1003C000938177836683820F931F089580E090E086
:1003D00008950E946E140F931F93CF93DF938B01A8
:1003E000FC01C281D381209759F06A817B81C801C9
:1003F0000E947C14892B21F00990D881C02DF3CF65
:10040000CE01DF91CF911F910F910895FC01848D52
:10041000DF01A80FB11DA35ABF4F2C91848D90E02E
:1004200001968F739927848FA689B7892C93A08909
:10043000B1898C9180648C93938D848D981306C0C0
:100440000288F389E02D80818F7D808308951F933A
:10045000CF93DF93282F30E0F901E255FF4F8491CD
:10046000F901E656FF4FD491F901EA57FF4FC491C5
:10047000CC23C9F0162F81110E94C500EC2FF0E0AB
:10048000EE0FFF1FE458FF4FA591B4918FB7F8947A
:10049000111105C09C91ED2FE095E92302C0EC916C
:1004A000ED2BEC938FBFDF91CF911F910895CF93E8
:1004B000DF9390E0FC01E656FF4F2491FC01EA57E0
:1004C000FF4F8491882361F190E0880F991FFC0110
:1004D000EE58FF4FC591D491FC01E458FF4FA59110
:1004E000B491611109C09FB7F89488812095822347
:1004F0008883EC912E230BC0623061F49FB7F8948F
:100500003881822F809583238883EC912E2B2C9326
:100510009FBF06C08FB7F894E8812E2B28838FBF2A
:10052000DF91CF9108958F929F92AF92BF92CF9219
:10053000DF92EF92FF926B017C010E94EE004B0173
:100540005C01C114D104E104F104F1F00E94EE0059
:10055000DC01CB0188199909AA09BB09883E93409F
:10056000A105B10570F321E0C21AD108E108F10834
:1005700088EE880E83E0981EA11CB11CC114D10422
:10058000E104F10419F7DDCFFF90EF90DF90CF90F9
:10059000BF90AF909F908F9008952FB7F89460917F
:1005A000F6037091F7038091F8039091F9032FBF40
:1005B00008951F920F920FB60F9211242F933F931D
:1005C0008F939F93AF93BF938091F6039091F7031E
:1005D000A091F803B091F9033091F50323E0230FC4
:1005E0002D3720F40196A11DB11D05C026E8230F6B
:1005F0000296A11DB11D2093F5038093F6039093FD
:10060000F703A093F803B093F9038091FA03909154
:10061000FB03A091FC03B091FD030196A11DB11D48
:100620008093FA039093FB03A093FC03B093FD0324
:10063000BF91AF919F918F913F912F910F900FBEDE
:100640000F901F9018958F929F92AF92BF92CF926A
:10065000DF92EF92FF926B017C010E94EE004B0152
:100660005C0184E0C81AD108E108F108C80CD91C63
:10067000EA1CFB1CC814D904EA04FB0438F40E94E9
:10068000EE0086169706A806B906C8F30E94EE008B
:100690006C157D058E059F05C8F3FF90EF90DF90E8
:1006A000CF90BF90AF909F908F9008951F920F9220
:1006B0000FB60F9211242F933F934F935F936F9335
:1006C0007F938F939F93AF93BF93CF93DF93EF93DA
:1006D000FF932091240330E0F901E255FF4F84910C
:1006E000F901E656FF4FD491F901EA57FF4FC49143
:1006F000CC23A1F081110E94C500EC2FF0E0EE0F99
:10070000FF1FE859FF4FA591B491EC91ED2331E023
:1007100020E009F430E0832F922F02C080E090E0C7
:1007200020912803309129032F5F3F4F30932903F5
:100730002093280320912703253618F026E02093E4
:100740002303209123032430D9F128F4223069F0C7
:100750002330D9F060C0253009F453C0263009F0A9
:100760005AC021E02093F40353C0009709F053C00E
:1007700020912803309129032436310508F443C021
:100780001092F403109227031DC08130910509F0E7
:1007900042C0E091270321E02E0F20932703F0E0D1
:1007A0002091280330912903EE0FFF1FED5DFC4FD0
:1007B00030872783109229031092280324E029C050
:1007C0000097B9F4E091270321E02E0F209327032F
:1007D000F0E02091280330912903EE0FFF1FED5D1B
:1007E000FC4F30872783109229031092280323E0BF
:1007F00010C020912803309129032536310558F087
:1008000007C0009741F4109229031092280303C0F7
:1008100025E020932303209126032223B9F0892B7E
:1008200051F480912503882321F08091250361E014
:1008300009C02D9A0BC080912503882331F0809147
:10084000250360E00E94270201C02D98FF91EF91DF
:10085000DF91CF91BF91AF919F918F917F916F91D8
:100860005F914F913F912F910F900FBE0F901F906E
:1008700018950F931F93CF93DF93EC01162F042F3E
:100880001B821A8288EE93E0A0E0B0E08C839D8307
:10089000AE83BF8380E191E0998388831F8A1E8A9B
:1008A000198E188E1B8E1A8E1D8E1C8E6E8D6E7F6D
:1008B00020FB61F96E8F6695617081E06827842F57
:1008C0000E94270261E0802F0E945702402F50E0D3
:1008D000FA01E656FF4FE491E88BFA01EA57FF4F21
:1008E000E491F0E0EE0FFF1FE458FF4F85919491E3
:1008F0009A8B898B60E0812F0E9457028E8D81FD3B
:1009000004C061E0812F0E9427021C87612F70E0E4
:10091000FB01E656FF4FE491ED87FB01EA57FF4FDD
:10092000E491F0E0EE0FFF1FE859FF4F859194919D
:100930009F878E87DF91CF911F910F9108951F920E
:100940000F920FB60F9211242F933F934F935F9303
:100950006F937F938F939F93AF93BF93EF93FF9387
:10096000E0912103F0912203309709F451C0968D54
:10097000A685B785858591FF04C09C91892329F4BC
:1009800047C09C91892309F043C0A389B4899C91F5
:100990008589809589238C93868997890197F1F7BA
:1009A000608D718DA685B785558538E020E0CB0137
:1009B0000197F1F7822F90E095958795282F4C911C
:1009C000452309F02068315091F7868D81FD2095EF
:1009D00080911F0390E001968F7399273091200337
:1009E000381749F0A0911F03B0E0A152BD4F2C93DE
:1009F00080931F0303C0868D8160868F828D938DC7
:100A00000197F1F7A389B4899C918589892B8C93EF
:100A1000FF91EF91BF91AF919F918F917F916F91D6
:100A20005F914F913F912F910F900FBE0F901F90AC
:100A30001895CF93DF93FC01828D938D892B31F133
:100A4000A0912103B0912203AE17BF07F9F01097D0
:100A500051F05396CD91DC915497988155968C9195
:100A6000809589238883868D8E7F868F10921F03C1
:100A700010922003F0932203E0932103A389B48909
:100A80009C918589892B8C9381E001C080E0DF9166
:100A9000CF91089560E087E00E94270261E088E03E
:100AA0000C9427020F931F93CF93DF930E94EB01C7
:100AB000EC01892BC1F00C811D810130110559F425
:100AC0006E817F816115710531F084E591E00E94AE
:100AD0007C14892B41F0015011090230110518F4E2
:100AE0008E819F8102C080E090E0DF91CF911F91C5
:100AF0000F910895FC01A081B1818C918D3051F04E
:100B000024F489508230B8F505C0803219F08F3254
:100B100019F0089511962CC011968C9111978A3274
:100B200019F08F32D1F008951196B183A083A0817E
:100B3000B181CD0101969183808311968C9111979B
:100B40008823C9F08A3299F712968C9112978F32C6
:100B500071F713960DC08A3071F2A081B181CD0179
:100B600001969183808311968C918111F4CF03C0FB
:100B7000B183A083C0CF08950F931F93CF93DF93CA
:100B80001F92CDB7DEB78C0169830E947A05D80128
:100B9000ED91FC91119780816981861305C0319692
:100BA000ED93FC9381E001C080E00F90DF91CF9145
:100BB0001F910F910895EF92FF920F931F93CF9380
:100BC000DF938C01DC011496CD91DC911597EA80BE
:100BD000FB808E819F81E80EF91EC80102960E945B
:100BE0007A05D8011296ED91FC9113979081973276
:100BF00091F1923281F180ED890F8A3060F0892F76
:100C00008F7D81548A3138F09B3229F083ED890F32
:100C1000823008F060C0F801228133812F5F3F4F9E
:100C2000338322832E813F81A9014F5F5F4F6C8107
:100C30007D816417750740F06A817B81FB01E20FBB
:100C4000F31F5F834E839083D8011296ED91FC9140
:100C500013979081D0CF3196D8011396FC93EE93E1
:100C60001297D8011296ED91FC91139720812223BF
:100C700091F1AF014F5F5F4F13965C934E931297C4
:100C8000291749F12C35A9F42181ADE5B1E08C910A
:100C9000882339F0821303C011962C9102C012965A
:100CA000F6CF2223C1F03296D8011396FC93EE932F
:100CB00012974E815F81BA016F5F7F4FEC81FD819A
:100CC000E617F70770F2EA81FB81E40FF51F7F83D7
:100CD0006E832083C6CF8E819F819C012F5F3F4F03
:100CE0004C815D814217530748F04A815B81FA01CC
:100CF000E80FF91F3F832E83108202C0E12CF12CF4
:100D0000C701DF91CF911F910F91FF90EF90089550
:100D1000EF92FF920F931F93CF93DF937C018B0190
:100D200082EB94E00E941905E7010E0D1F1DC0170C
:100D3000D10731F0699182EB94E00E942C01F7CF4A
:100D400060ED77E080E090E00E94930282EB94E017
:100D50000E948001892B29F082EB94E00E94980187
:100D6000F5CFDF91CF911F910F91FF90EF900895F4
:100D7000CF92DF92EF92FF92CF93DF9310927000A9
:100D800061E083E00E94570260E083E00E94270256
:100D900081E08093B00089E08093B10082ED809380
:100DA000B30086E48093B40088E293E20E9477095E
:100DB0008091B0008F7D8093B00064E971E180E0A4
:100DC00090E00E942303C0E2D0E0C12CD12CE12CA2
:100DD00090E8F92ED701C6018E779178AA76B17680
:100DE000892B8A2B8B2B71F080E392E00E9477098C
:100DF0008091B0008F7D8093B0006AE976E080E05A
:100E000090E00DC080E392E00E9477098091B000ED
:100E10008F7D8093B00060E372E080E090E00E94FC
:100E20002303F694E794D794C794219799F680E327
:100E300092E00E9477098091B0008F7D8093B0008E
:100E400081E09091D202911180E08093D2028823B8
:100E500011F061E001C060E089E0DF91CF91FF9087
:100E6000EF90DF90CF900C942702CF92DF92EF9219
:100E7000FF920F931F93CF93DF93EC018B016901D6
:100E80007A0167E671E00E94B10CF8014481558156
:100E90006081718181ED94E00E9425090E94CD025C
:100EA000C60ED71EE81EF91E0E94CD026C157D05E8
:100EB0008E059F0578F481ED94E00E948001892BD6
:100EC00099F381ED94E00E949801682FCE010E9471
:100ED0000D0CF1CFCE01DF91CF911F910F91FF90BB
:100EE000EF90DF90CF900895DB01109749F0ED91DE
:100EF000FC9111970190F081E02DBC01CD01099486
:100F000080E090E008959F92AF92BF92CF92DF92DF
:100F1000EF92FF920F931F93CF93DF9300D000D0F7
:100F200000D0CDB7DEB76C01FC0100811181B801A2
:100F300084E090E00E947407009739F0FC0111836F
:100F40000083138212828C0111C08091D70281111B
:100F50000BC01092D4021092D3021092D6021092BB
:100F6000D50281E08093D70203ED12E07601F2E032
:100F7000EF0EF11C6BE7C7010E94BC05882309F442
:100F800066C06DE7C7010E94BC05811171C086E093
:100F9000982EC6010E94DB055C01892B09F457C01D
:100FA0006AE3C7010E94BC05882309F450C01A8275
:100FB0001982BE016F5F7F4FC6010E948909882395
:100FC00009F445C0B501C8010E94EB01DC01892B81
:100FD00051F5F801608171818AE090E00E94740708
:100FE000DC01892B39F011961C921E9215961C92E9
:100FF0001E921497F801228133812115310551F099
:10100000F90180819181009711F09C01F9CFB183A2
:10101000A08303C0F801B383A2831097C1F0139695
:10102000BC92AE921297FE0131961496892D0190D2
:101030000D928A95E1F76DE7C7010E94BC05811109
:1010400017C06CE2C7010E94BC058111A2CF80913C
:10105000D70281110BC01092D4021092D3021092C9
:10106000D6021092D50281E08093D70203ED12E000
:10107000C80126960FB6F894DEBF0FBECDBFDF9134
:10108000CF911F910F91FF90EF90DF90CF90BF9085
:10109000AF909F900895FC01538D448D252F30E033
:1010A000842F90E0821B930B541710F0CF96089575
:1010B0000197089583E094E00E94AF0021E0892B1E
:1010C00009F420E0822F0895EF92FF920F931F936F
:1010D000CF93DF93EC0181E0888F9B8D8C8D9813EB
:1010E00005C0E889F989808185FD24C0F62E0B8D25
:1010F00010E00F5F1F4F0F731127E02E8C8DE81249
:101100000CC00FB607FCFACFE889F989808185FF0A
:10111000F5CFCE010E940602F1CF8B8DFE01E80FC4
:10112000F11DE35AFF4FF0820B8FEA89FB89808122
:10113000806207C0EE89FF896083E889F989808130
:101140008064808381E090E0DF91CF911F910F91C7
:10115000FF90EF900895CF93DF93EC01888D882363
:10116000C9F0EA89FB89808185FD05C0A889B98914
:101170008C9186FD0FC00FB607FCF5CF808185FFEF
:10118000F2CFA889B9898C9185FFEDCFCE010E945D
:101190000602E7CFDF91CF9108951F920F920FB60D
:1011A0000F9211242F933F934F935F936F937F93ED
:1011B0008F939F93AF93BF93EF93FF9383E094E05C
:1011C0000E940602FF91EF91BF91AF919F918F9185
:1011D0007F916F915F914F913F912F910F900FBE33
:1011E0000F901F9018951F920F920FB60F92112417
:1011F0002F938F939F93EF93FF93E0911304F091BC
:1012000014048081E0911904F0911A0482FD12C047
:10121000908180911C048F5F8F7320911D04821731
:1012200051F0E0911C04F0E0ED5FFB4F958F80934F
:101230001C0401C08081FF91EF919F918F912F91AC
:101240000F900FBE0F901F901895CF92DF92EF92E4
:10125000FF920F931F93CF93DF936C017A018B0161
:10126000C0E0D0E0CE15DF0589F0D8016D918D0189
:10127000D601ED91FC910190F081E02DC601099518
:10128000892B11F47E0102C02196ECCFC701DF91BA
:10129000CF911F910F91FF90EF90DF90CF90089525
:1012A0000F931F93CF93DF93EC018881998100976F
:1012B00029F02A813B812617370788F48B016F5F5D
:1012C0007F4F0E94A413009761F0998388831B834A
:1012D0000A832C813D81232B11F4FC01108281E0D3
:1012E00001C080E0DF91CF911F910F91089520916F
:1012F000B00020622093B000009751F0BC0180E064
:1013000090E0653071058105910510F00C94230380
:1013100008959F92AF92BF92CF92DF92EF92FF9289
:101320000F931F93CF93DF9300D000D000D0CDB7A1
:10133000DEB7FC019681992309F4E2C06B017F01BD
:10134000915096835F0182E0A80EB11CC5010E94F6
:101350007A05D7011296ED91FC91139780818B3518
:1013600021F08B3709F499C0A3C0F70100811181E6
:10137000B80184E090E00E947407009751F0DC010E
:1013800011961C930E9313961C921E9212978C0129
:1013900011C08091F40481110BC01092F1041092DD
:1013A000F0041092F3041092F20481E08093F404AC
:1013B00000EF14E06BE5C5010E94BC05882309F429
:1013C0004CC06DE5C5010E94BC05811157C086E087
:1013D000982E1A821982BE016F5F7F4FC7010E944B
:1013E00089098823D1F1F8016081718188E090E05A
:1013F0000E947407DC01892B39F011961C921E9211
:1014000013961C921E921297F801228133812115A6
:10141000310551F0F90180819181009711F09C0113
:10142000F9CFB183A08303C0F801B383A2831097DF
:10143000A1F0FE0131961296892D01900D928A95A8
:10144000E1F76DE5C5010E94BC05811117C06CE292
:10145000C5010E94BC058111BCCF8091F4048111AB
:101460000BC01092F1041092F0041092F304109249
:10147000F20481E08093F40400EF14E0D8018D9130
:101480009C91892B11F410E033C086E090E0F601C6
:1014900091838083138302832AC0C7010E9483073C
:1014A000DC012D913C91232B71F327E030E01AC031
:1014B00011E0873219F0823209F010E0C7010E9472
:1014C000DB05009701F3112359F022E030E0D6014B
:1014D00011963C932E9313969C938E93129708C06B
:1014E00021E030E0F601318320839383828311E091
:1014F000D70116968C9116978F5F16968C9301C024
:1015000010E0812F26960FB6F894DEBF0FBECDBF38
:10151000DF91CF911F910F91FF90EF90DF90CF90CF
:10152000BF90AF909F900895FC01138E128E118E84
:10153000108E178A168A8DE991E0958F848F8485A5
:10154000863108F04DC02DEB30E0378B268B2BE930
:1015500031E0318F208F2CE231E0338F228F909158
:101560006800883050F021E08E3008F420E081E0FF
:1015700001C0880F2A95EAF701C084E0892B809387
:1015800068008485883038F08E3040F0863148F02D
:1015900020E030E008C02DE630E005C02BE630E06A
:1015A00002C02CE630E0348B238B883030F491E09D
:1015B00001C0990F8A95EAF70EC0282F30E08E30CF
:1015C00018F42850310902C02E50310991E001C0B1
:1015D000990F2A95EAF7958B848D958D0197F1F7F0
:1015E000CF010C9419050F931F930E94CD026093B5
:1015F000D9047093DA048093DB049093DC04E091C7
:10160000D104F091D2040284F385E02D81ED94E0C1
:10161000099597FF1FC00E94CD020091D904109137
:10162000DA042091DB043091DC04DC01CB01801B67
:10163000910BA20BB30B0091D5041091D60420910D
:10164000D7043091D80480179107A207B307B8F2E6
:101650008FEF9FEF1F910F910895009769F0FC01A4
:1016600001900020E9F73197AF01481B590BBC01ED
:1016700083E094E00C94250980E090E00895CF93F6
:10168000DF93FC01448155816081718183E094E0A6
:101690000E942509EC018FE992E00E942D0B8C0F2E
:1016A0009D1FDF91CF9108958F929F92AF92BF922D
:1016B0000F931F93CF93DF93CDB7DEB7A1970FB6EC
:1016C000F894DEBF0FBECDBF19A2423008F44AE045
:1016D0008E010F5D1F4F842E912CA12CB12CA501E2
:1016E00094010E943B12E62FB901CA010150110971
:1016F000EA3014F4E05D01C0E95CD801EC93232BDF
:10170000242B252B61F7C8010E942D0BA1960FB643
:10171000F894DEBF0FBECDBFDF91CF911F910F9127
:10172000BF90AF909F908F900895CF93DF93FC016F
:1017300024813581232B71F0FB01DC01CD91DC91FB
:1017400060817181CE010E948C14009719F08C1B6E
:101750009D0B02C08FEF9FEFDF91CF910895EF9225
:10176000FF920F931F93CF93DF93FC012481358168
:101770006115710511F480E019C041155105A9F0FA
:101780007B01EC018A01020F131FB8010E9450096E
:10179000882389F3288139818C819D81B701820F4B
:1017A000931F0E9485141D830C8381E0DF91CF91EC
:1017B0001F910F91FF90EF900895EF92FF920F937A
:1017C0001F93CF93DF93CDB7DEB727970FB6F8946B
:1017D000DEBF0FBECDBF7C01CB014AE08E010F5FA3
:1017E0001F4FB8010E94C611F80101900020E9F7CF
:1017F0003197AF01401B510BB801C7010E94AF0BDD
:1018000027960FB6F894DEBF0FBECDBFDF91CF9104
:101810001F910F91FF90EF900895CF93DF9300D029
:10182000CDB7DEB769831A8241E050E0BE016F5F39
:101830007F4F0E94AF0B0F900F90DF91CF910895D3
:101840006115710551F0FB0101900020E9F7319716
:10185000AF01461B570B0C94AF0B80E00895CF935C
:10186000DF93EC0188819981009711F00E940C139D
:10187000198218821D821C821B821A82DF91CF91ED
:101880000895CF93DF93EC016115710561F0FB01C1
:1018900001900020E9F73197AF01461B570B0E94DA
:1018A000AF0B811103C0CE010E942F0CCE01DF913E
:1018B000CF910895EF92FF920F931F93CF93DF93F1
:1018C000EC017B018A01BA010E945009811104C018
:1018D000CE010E942F0C07C01D830C83B7018881A5
:1018E00099810E948514CE01DF91CF911F910F91B4
:1018F000FF90EF900895CF93DF93EC016115710590
:1019000059F0FB0101900020E9F73197AF01461B28
:10191000570B0E945A0C02C00E942F0CCE01DF917F
:10192000CF910895FC01808191810C940C13FB01EF
:10193000DC0111961C921E9213961C921E92129715
:1019400015961C921E9214978617970749F060818E
:1019500071816115710521F0448155810C945A0CF7
:101960000895FC0111821082138212821582148262
:101970006115710551F0FB0101900020E9F73197E5
:10198000AF01461B570B0C945A0C089580EA94E063
:101990000E94920C86EA94E00E94920C8CEA94E0F9
:1019A0000E94920C82EB94E00E94B90181ED94E0D8
:1019B0000C94B901CF93DF93CDB7DEB7C159D109EC
:1019C0000FB6F894DEBF0FBECDBF789484B58260A9
:1019D00084BD84B5816084BD85B5826085BD85B5D3
:1019E000816085BD80916E00816080936E00109251
:1019F00081008091810082608093810080918100CC
:101A0000816080938100809180008160809380005C
:101A10008091B10084608093B1008091B0008160BA
:101A20008093B00080917A00846080937A008091E6
:101A30007A00826080937A0080917A00816080933E
:101A40007A0080917A00806880937A001092C100B9
:101A500061E089E00E94570261E087E00E9457023E
:101A600061E088E00E94570260E087E00E94270260
:101A700060E088E00E94270281ED94E00E94190551
:101A8000E0911304F091140482E08083E0910F044C
:101A9000F09110041082E0911104F09112048FEC87
:101AA000808310921B04E0911704F091180486E0E3
:101AB0008083E0911504F091160480818061808319
:101AC000E0911504F0911604808188608083E09194
:101AD0001504F0911604808180688083E0911504DC
:101AE000F091160480818F7D808381ED94E00E94C7
:101AF000940A68EE73E080E090E00E94930268E64A
:101B000071E0CE0183599F4F0E94B10C00E028EB99
:101B10003BE040E050E0BE0163597F4FCE010196AB
:101B20007C010E943507C7010E94920CCE018359A7
:101B30009F4F0E94920C61E771E0CE0183599F4F45
:101B40000E94B10C20ED37E040E050E0BE01635947
:101B50007F4FC7010E943507C7010E94920CCE013A
:101B600083599F4F0E94920C66E771E0CE01835922
:101B70009F4F0E94B10C20ED37E040E050E0BE01E5
:101B800063597F4FC7010E943507C7010E94920C1D
:101B9000CE0183599F4F0E94920C64E871E0CE0100
:101BA00083599F4F0E94B10C20ED37E040E050E098
:101BB000BE0163597F4FC7010E943507C7010E94CC
:101BC000920CCE0183599F4F0E94920C62E971E002
:101BD000CE0183599F4F0E94B10C20ED37E040E0C9
:101BE00050E0BE0163597F4FC7010E943507C7010E
:101BF0000E94920CCE0183599F4F0E94920C82EB5F
:101C000094E00E94940A6DE070E086EA91E00E9400
:101C100088066AE070E084EB91E00E9488060E94EA
:101C20004A0582EB94E00E948001892BD1F360ED9C
:101C300077E080E090E00E9493026E0199E0C90E87
:101C4000D11C8AE0482E94E6A92EB12C22E2822EE5
:101C500021E0922E82EB94E00E948001892B09F40E
:101C6000C3C182EB94E00E949801582E8BE7581272
:101C700004C081E08093FE0343C18091FE0388236A
:101C800009F43EC19DE759123BC11092FE036DE776
:101C90008CEA94E00E940D0CDC82CB82BE82AD8285
:101CA00018861F829A8289828091AC049091AD043B
:101CB000009711F487E691E0AF96FFAEEEAEAF97D6
:101CC000E1969FAF8EAFE197E396FFAEEEAEE3975E
:101CD000E4964FAEE497CE0183599F4F0E9483074D
:101CE0008C016FEB71E00E9452059093010180938B
:101CF000000168EC71E0C8010E9452059093030155
:101D0000809302016DEC71E0C8010E94520590932E
:101D100005018093040181ED94E00E9419050E9461
:101D20004A0561ED71E0CE0183599F4F0E94B10CCD
:101D300000E020ED37E040E050E0BE0163597F4F06
:101D4000C7010E943507C7010E94920CCE0183593A
:101D50009F4F0E94920C0091040110910501609028
:101D60000201709003016CED71E0CE0183599F4F29
:101D70000E94B10CBE0163597F4FC7010E94970CAE
:101D8000B301C7010E94410C67EE71E00E94410C53
:101D9000B8010E94410C6BEE71E00E94410CBC0145
:101DA000CE0186589F4F0E94970CC7010E94920C4B
:101DB000CE0183599F4F0E94920CBE0166587F4FFF
:101DC000CE0183599F4F0E94970C00E028E833E131
:101DD00040E050E0BE0163597F4FC7010E943507C4
:101DE000C7010E94920CCE0183599F4F0E94920C12
:101DF0006FEE71E0C7010E94B10C62EF71E0CE019D
:101E00008C589F4F0E94B10C28EB3BE040E050E023
:101E1000BE016C587F4FCE0183599F4F0E943507FA
:101E2000B701CE0183599F4F0E94950B8C01CE01C3
:101E300083599F4F0E94920CCE018C589F4F0E9455
:101E4000920CC7010E94920C0F3F1F4F09F44BC028
:101E50004091B0045091B1046091AC047091AD0414
:101E600083E094E00E94250983E094E00E94AF00A3
:101E7000892BD1F364EF71E080E090E00E9493023F
:101E800083E094E00E94AF00892B39F083E094E076
:101E90000E948D008133A1F328C06EEF71E0CE0166
:101EA00083599F4F0E94B10C00E020ED37E040E0E5
:101EB00050E0BE0163597F4FC7010E943507C7013B
:101EC0000E94920CCE0183599F4F0E94920C61E0B8
:101ED00087E00E94270260E088E00E94270281E0FC
:101EE0008093010402C00E944A05CE0186589F4F8C
:101EF0000E94920C67E671E08CEA94E00E947B0CF1
:101F00008091FE03882309F4A5CE652D8CEA94E028
:101F10000E940D0C9FCE81ED94E00E948001892BE0
:101F200009F460C067E671E0CE0184579F4F0E94BC
:101F3000B10C0E94F30A97FF5CC069E072E0C70130
:101F40000E94B10CC057DF4F48815981C059D04021
:101F5000C457DF4F68817981CC58D040C7010E94B7
:101F6000AF0B811103C0C7010E942F0CC7010E9453
:101F70003F0BC7010E94920CC057DF4F4881598127
:101F8000C059D040C457DF4F68817981CC58D040C8
:101F900080EA94E00E94AF0BC057DF4F888199819F
:101FA000C059D040892B09F4A0C1C457DF4FE88144
:101FB000F981CC58D040309709F497C180818D3099
:101FC00009F093C18091FF039091000401969093D2
:101FD00000048093FF030297B9F0CE0184579F4F0E
:101FE0000E94920C0E94BB00809101048823D1F3CF
:101FF00092CF8A30910509F4A0CF682FCE01845783
:102000009F4F0E940D0C95CF109200041092FF0379
:1020100061E172E0C7010E94B10CB70180EA94E06F
:102020000E94950B05962091A4043091A504821777
:10203000930760F42091A0043091A104211531058B
:1020400029F0F901E80FF91FC08001C0C12C0C2C48
:10205000000CDD0890E3C91AD108C7010E94920C58
:10206000B60180E090E04AE00E94540B8FE992E0D4
:102070000E942D0B67E172E0C7010E94B10CB7010D
:1020800080EA94E00E94950B04962091A40430917C
:10209000A5048217930760F42091A0043091A10455
:1020A0002115310529F0F901E80FF91F008101C060
:1020B00000E0002E000C110B00531109C7010E9413
:1020C000920C4801012E000CAA08BB0817FF14C08F
:1020D000E0910304F09104040190F081E02D6DE2A1
:1020E00083E094E0099566277727CB016819790981
:1020F0008A099B094AE003C04AE0C501B4010E9475
:10210000540B8FE992E00E942D0B67E671E0CE013F
:102110008A579F4F0E94B10C0130110541F00230E7
:102120001105A1F40E94B8066CE172E004C00E949F
:10213000B80661EB71E0CE018A579F4F0E947B0C7D
:10214000CE018A579F4F0E943F0B07C060E272E0AA
:10215000CE018A579F4F0E947B0C67E671E080EAB0
:1021600094E00E947B0C64E272E0CE0180589F4FA5
:102170000E94B10C66E372E0CE0180589F4F0E942E
:10218000200C6DE572E0CE0180589F4F0E94200C1C
:10219000C657DF4F68817981CA58D040CE01805838
:1021A0009F4F0E94DD0B6FE972E0CE0180589F4F78
:1021B0000E94200C6DE672E0CE0180589F4F0E9475
:1021C000200C6DE872E0CE0180589F4F0E94200CD9
:1021D000C657DF4F48815981CA58D040CA57DF4F90
:1021E00068817981C658D040CE0180589F4F0E94A7
:1021F000AF0BCC57DF4FA880B980C458D04062EAFB
:1022000072E0C7010E94B10CB701CE0183599F4F04
:102210000E94970CB601CE0183599F4F0E94DD0B9F
:10222000811105C0CE0183599F4F0E942F0C65E19B
:1022300072E0CE0183599F4F0E94410C8C01B50181
:102240000E94DD0B811103C0C8010E942F0C6FE9B1
:1022500072E0C8010E94410CBC01CE018C589F4F16
:102260000E94970C00E028EB3BE040E050E0BE010C
:102270006C587F4FCE0186589F4F0E943507CE0184
:1022800086589F4F0E94920CCE018C589F4F0E94FF
:10229000920CCE0183599F4F0E94920CC7010E945D
:1022A000920CBE0160587F4FC7010E94970C01E05D
:1022B00028EE33E040E050E0B701CE0183599F4F54
:1022C0000E943507CE0183599F4F0E94920CC7018F
:1022D0000E94920CCE0180589F4F0E94920CCE011A
:1022E0008A579F4F0E94920C78CE10920004109251
:1022F000FF0373CEE3E0F4E01382128288EE93E0F2
:10230000A0E0B0E084839583A683B78388E291E060
:102310009183808385EC90E09587848784EC90E0BE
:102320009787868780EC90E0918B808B81EC90E0A2
:10233000938B828B82EC90E0958B848B86EC90E083
:10234000978B868B118E128E138E148E20E04BE0AD
:102350006AE081ED94E00E94390420E045E064E009
:1023600082EB94E00E94390467E671E08CEA94E025
:102370000E94B10C6EEA72E086EA94E00E94B10C11
:1023800067E671E080EA94E00C94B10CBB27FB0196
:102390005527AA27880F991FAA1FA41710F0A41B5E
:1023A00083955051B9F7A05DAA3308F0A95DA193B8
:1023B000009779F7B111B1931192CB010C94E01110
:1023C000DC01FC01672F71917723E1F7329704C09C
:1023D0007C916D9370836291AE17BF07C8F3089527
:1023E0002F923F924F925F926F927F928F929F9225
:1023F000AF92BF92CF92DF92EF92FF920F931F9313
:10240000CF93DF93CDB7DEB7CA1BDB0B0FB6F894C3
:10241000DEBF0FBECDBF09942A88398848885F8403
:102420006E847D848C849B84AA84B984C884DF8074
:10243000EE80FD800C811B81AA81B981CE0FD11D58
:102440000FB6F894DEBF0FBECDBFED01089597FB28
:10245000072E16F4009407D077FD09D00E945D1274
:1024600007FC05D03EF4909581959F4F0895709597
:1024700061957F4F0895A1E21A2EAA1BBB1BFD0197
:102480000DC0AA1FBB1FEE1FFF1FA217B307E40753
:10249000F50720F0A21BB30BE40BF50B661F771FAB
:1024A000881F991F1A9469F760957095809590958B
:1024B0009B01AC01BD01CF010895AA1BBB1B51E1DB
:1024C00007C0AA1FBB1FA617B70710F0A61BB70BA4
:1024D000881F991F5A95A9F780959095BC01CD0149
:1024E0000895EE0FFF1F0590F491E02D0994CF930E
:1024F000DF938230910510F482E090E0E091FE04D9
:10250000F091FF0420E030E0C0E0D0E0309711F11E
:102510004081518148175907C0F04817590761F4A5
:1025200082819381209719F09B838A832BC090939B
:10253000FF048093FE0426C02115310519F04217CF
:10254000530718F49A01BE01DF01EF010280F38105
:10255000E02DDCCF2115310509F1281B390B243082
:10256000310590F412968D919C9113976115710528
:1025700021F0FB019383828304C09093FF04809336
:10258000FE04FD01329644C0FD01E20FF31F81936A
:102590009193225031092D933C933AC02091FC0431
:1025A0003091FD04232B41F4209108013091090161
:1025B0003093FD042093FC04209106013091070123
:1025C0002115310541F42DB73EB740910A015091D4
:1025D0000B01241B350BE091FC04F091FD04E21784
:1025E000F307A0F42E1B3F0B2817390778F0AC0136
:1025F0004E5F5F4F2417350748F04E0F5F1F509313
:10260000FD044093FC048193919302C0E0E0F0E06C
:10261000CF01DF91CF9108950F931F93CF93DF9355
:10262000009709F48CC0FC0132971382128200914A
:10263000FE041091FF040115110581F42081318100
:10264000820F931F2091FC043091FD042817390755
:1026500079F5F093FD04E093FC0471C0D80140E0EB
:1026600050E0AE17BF0750F412962D913C9113978E
:10267000AD012115310509F1D901F3CF9D01DA0131
:102680003383228360817181860F971F821793079E
:1026900069F4EC0128813981260F371F2E5F3F4FE7
:1026A000318320838A819B8193838283452B29F404
:1026B000F093FF04E093FE0442C01396FC93EE9364
:1026C0001297ED01499159919E01240F351FE21790
:1026D000F30771F480819181840F951F0296119602
:1026E0009C938E938281938113969C938E931297E1
:1026F000E0E0F0E0D80112968D919C91139700973D
:1027000019F0F8018C01F6CF8D919C9198012E5F04
:102710003F4F820F931F2091FC043091FD04281736
:10272000390769F4309729F41092FF041092FE04DF
:1027300002C0138212821093FD040093FC04DF9107
:10274000CF911F910F910895A0E0B0E0EAEAF3E184
:102750000C94F411EC01009721F4CB010E94771244
:10276000B8C0FC01E60FF71F9C0122503109E217A7
:10277000F30708F4ACC0D9010D911C91119706170D
:102780001707B0F00530110508F49FC0C801049781
:102790008617970708F499C002501109061B170BFA
:1027A000019311936D937C93CF010E940C138DC004
:1027B0005B01A01AB10A4C01800E911EA091FE048B
:1027C000B091FF0440E050E0E12CF12C109709F4A7
:1027D0004AC0A815B905D1F56D907C901197630199
:1027E00082E0C80ED11CCA14DB0480F1A3014A198F
:1027F0005B096A0182E0C80ED11C1296BC90129748
:102800001396AC91B5E0CB16D10440F0B282A3830D
:1028100051834083D9016D937C930AC00E5F1F4F93
:10282000C301800F911FF90191838083EB2DFA2F53
:10283000E114F10431F0D7011396FC93EE93129753
:1028400044C0F093FF04E093FE043FC08D919C913F
:1028500011974817590708F4AC017D0112960D90A5
:10286000BC91A02DB3CF8091FC049091FD048815FC
:102870009905E1F446175707C8F480910601909135
:102880000701009741F48DB79EB740910A0150911E
:102890000B01841B950BE817F907C8F4F093FD04AE
:1028A000E093FC04F901718360830FC0CB010E94A7
:1028B00077127C01009759F0A801BE010E947314A1
:1028C000CE010E940C13C70104C0CE0102C080E0FB
:1028D00090E0CDB7DEB7EEE00C94101281E090E00E
:1028E000F8940C94A614FB01DC0102C001900D9237
:1028F00041505040D8F70895FB01DC018D910190C3
:1029000080190110D9F3990B0895FB01DC010190A6
:102910000D920020E1F70895FB0151915523A9F094
:10292000BF01DC014D9145174111E1F759F4CD018B
:102930000190002049F04D9140154111C9F3FB0170
:102940004111EFCF81E090E00197089510E0C2E6D9
:10295000D0E004C0FE010E9471122196C336D10757
:06296000C9F7F894FFCF57
:1029660067016701670100000005800000000000A4
:102976002C012509D2012B018001980113010000C9
:102986000000D50100000000640825094B08AB08CB
:10299600AF008D00A10000000000E9012509D20169
:1029A600D101E901E901E90100000000E901250979
:1029B600D201D1016E756C6C0022225C5C620866E5
:1029C6000C6E0A720D74090041542B5253540D0AB1
:1029D6000041540D0A0041542B43574D4F44453D89
:1029E600310D0A0041542B4349504D55583D310D88
:1029F6000A0041542B4349505345525645523D31E6
:102A06002C38300D0A0041542B4E414D45616972F8
:102A1600636F6E0041542B50494E3230313400758D
:102A26007365724E616D65007373696400707377C8
:102A36000041542B43575141500D0A0041542B433A
:102A4600574A41503D2200222C2200220D0A004FF7
:102A56004B0041542B43574A41503F0D0A00415405
:102A66002B43494653520D0A0044454255473A20E6
:102A7600002B4950442C00636D643D006F66660070
:102A860065727200485454502F312E312032303046
:102A9600204F4B0D0A00436F6E74656E742D54798A
:102AA60070653A746578742F68746D6C3B63686101
:102AB600727365743D5554462D380D0A00436F6E8A
:102AC60074656E742D4C656E6774683A0041636375
:102AD6006573732D436F6E74726F6C2D416C6C6FE2
:102AE600772D4F726967696E3A2A0D0A00436F6E39
:102AF6006E656374696F6E3A636C6F73650D0A0D6C
:102B06000A0041542B43495053454E443D002F4142
:102B16006972636F6E74726F6C6C2F73657448752F
:102B26006D69416E6454656D702E416374696F6E94
:022B360000009D
:00000001FF
